:100000000004001009010000D5000000D900000024
:1000100000000000000000000000000000000000E0
:1000200000000000000000000000000000000000D0
:100030000000000000000000DD000000E100000002
:100040004D0100004D010000000000004D010000C6
:100050004D0100004D010000000000000000000004
:100060004D0100004D010000A50300004D010000FE
:100070004D0100004D010000000000004D01000096
:100080000000000000000000000000000000000070
:100090000000000000000000000000000000000060
:1000A0004D0100004D0100004D0100004D01000018
:1000B0004D0100004D0100004D0100004D01000008
:1000C000640500000000001004000000040000109F
:1000D0000400000000B5FEE700B5FEE700B5FEE74E
:1000E00000B5FEE710B5002302E01C58043310C130
:1000F0009342FAD310BD10B5031C002200E004C3E4
:100100001C1A8C42FBD310BD38B50C4C0C4D05E0CD
:1001100020686168A2680C34FFF7E4FFAC42F7D3B3
:1001200005E0206861680834FFF7E5FF00E0054D51
:10013000AC42F6D300F0BAF9FEE7C046C0000000BA
:10014000CC000000D400000000B5FEE700B5FEE7DB
:10015000FFFFFFFFFFFFFFFFFFFFFFFFFFFFFFFFAF
:10016000FFFFFFFFFFFFFFFFFFFFFFFFFFFFFFFF9F
:10017000FFFFFFFFFFFFFFFFFFFFFFFFFFFFFFFF8F
:10018000FFFFFFFFFFFFFFFFFFFFFFFFFFFFFFFF7F
:10019000FFFFFFFFFFFFFFFFFFFFFFFFFFFFFFFF6F
:1001A000FFFFFFFFFFFFFFFFFFFFFFFFFFFFFFFF5F
:1001B000FFFFFFFFFFFFFFFFFFFFFFFFFFFFFFFF4F
:1001C000FFFFFFFFFFFFFFFFFFFFFFFFFFFFFFFF3F
:1001D000FFFFFFFFFFFFFFFFFFFFFFFFFFFFFFFF2F
:1001E000FFFFFFFFFFFFFFFFFFFFFFFFFFFFFFFF1F
:1001F000FFFFFFFFFFFFFFFFFFFFFFFFFFFFFFFF0F
:10020000FFFFFFFFFFFFFFFFFFFFFFFFFFFFFFFFFE
:10021000FFFFFFFFFFFFFFFFFFFFFFFFFFFFFFFFEE
:10022000FFFFFFFFFFFFFFFFFFFFFFFFFFFFFFFFDE
:10023000FFFFFFFFFFFFFFFFFFFFFFFFFFFFFFFFCE
:10024000FFFFFFFFFFFFFFFFFFFFFFFFFFFFFFFFBE
:10025000FFFFFFFFFFFFFFFFFFFFFFFFFFFFFFFFAE
:10026000FFFFFFFFFFFFFFFFFFFFFFFFFFFFFFFF9E
:10027000FFFFFFFFFFFFFFFFFFFFFFFFFFFFFFFF8E
:10028000FFFFFFFFFFFFFFFFFFFFFFFFFFFFFFFF7E
:10029000FFFFFFFFFFFFFFFFFFFFFFFFFFFFFFFF6E
:1002A000FFFFFFFFFFFFFFFFFFFFFFFFFFFFFFFF5E
:1002B000FFFFFFFFFFFFFFFFFFFFFFFFFFFFFFFF4E
:1002C000FFFFFFFFFFFFFFFFFFFFFFFFFFFFFFFF3E
:1002D000FFFFFFFFFFFFFFFFFFFFFFFFFFFFFFFF2E
:1002E000FFFFFFFFFFFFFFFFFFFFFFFFFFFFFFFF1E
:1002F000FFFFFFFFFFFFFFFFFFFFFFFFFFFFFFFF0E
:10030000074B40201A1DD16F0143D1675968054A38
:100310000A405A6059688022D2000A435A607047E6
:1003200000800440FFFBFFFF064B8021DA6F0A4389
:10033000DA67054B054A01211A60E0224942520062
:10034000995070470480044000C000400400FFFF43
:1003500038B500F067F8FFF7D3FF114BFA211868A2
:10036000890000F0A7F800F02DF8A025FFF7DCFFCA
:1003700080232D069B01EA5804210A43EA50882372
:1003800004249B01FA20EC50400000F041F88A233D
:100390009B01FA20EC50400000F03AF8EFE7C0462D
:1003A0000000001000B5054B0122D968114204D0AD
:1003B000DA60034B1A6801321A6000BD0040004049
:1003C0000400001010B50E4B8022191DCC6FD20016
:1003D0001443CC675C6880218C435C605C6821437B
:1003E0005960084B00211960074B8021186018687C
:1003F00009060143196001219960044B1A6010BD80
:1004000000800440040000100040004000E100E0D3
:1004100000B5034B00221A601A688242FCD300BD6B
:100420000400001070B51D4D00206B6ADB051B0F2A
:10043000013B0E2B02D81A4A9B009858696A2A6F12
:100440000326164B3240174C022A0CD0B24212D06F
:10045000012A03D11B6C1E40022E01D0124B00E07A
:100460000023236012E01F2319404900023100F0ED
:1004700021F820600AE0196C0A40022AF0D09B683B
:100480001F2009491840013041432160054CA96FE4
:10049000206800F00FF8206070BDC0460080044066
:1004A0002805000000000010001BB70008B5FFF78A
:1004B0004FFF08BD002931D00122D207030901E016
:1004C000090112099942FBD9430801E04900520889
:1004D0009942FBD900E04908401A07D35241FAD3A8
:1004E00001461046704749084018F7D29218FAD3CF
:1004F0004018014610467047CB0F00D04942021009
:1005000000D54042534008B5FFF7D4FF0CBC521051
:1005100000D34042002A00D549421847F446002043
:1005200000F001F86047704720A1070000350C007B
:10053000E0C81000C05C1500006A180040771B007E
:1005400080841E00C0912100009F240040AC270041
:10055000E032290020402C00604D2F0000D43000F4
:0405600040E1330043
:0405640000366E01EE
:0400000300000109EF
:00000001FF
