:100000000004001009010000D5000000D900000024
:1000100000000000000000000000000000000000E0
:1000200000000000000000000000000000000000D0
:100030000000000000000000DD000000E100000002
:100040004D0100004D010000000000004D010000C6
:100050004D0100004D010000000000000000000004
:100060004D0100004D010000B50300004D010000EE
:100070004D0100004D010000000000004D01000096
:100080000000000000000000000000000000000070
:100090000000000000000000000000000000000060
:1000A0004D0100004D0100004D0100004D01000018
:1000B0004D0100004D0100004D0100004D01000008
:1000C000B40800000000001004000000040000104C
:1000D0000400000000B5FEE700B5FEE700B5FEE74E
:1000E00000B5FEE710B5002302E01C58043310C130
:1000F0009342FAD310BD10B5031C002200E004C3E4
:100100001C1A8C42FBD310BD38B50C4C0C4D05E0CD
:1001100020686168A2680C34FFF7E4FFAC42F7D3B3
:1001200005E0206861680834FFF7E5FF00E0054D51
:10013000AC42F6D300F056FBFEE7C046C00000001C
:10014000CC000000D400000000B5FEE700B5FEE7DB
:10015000FFFFFFFFFFFFFFFFFFFFFFFFFFFFFFFFAF
:10016000FFFFFFFFFFFFFFFFFFFFFFFFFFFFFFFF9F
:10017000FFFFFFFFFFFFFFFFFFFFFFFFFFFFFFFF8F
:10018000FFFFFFFFFFFFFFFFFFFFFFFFFFFFFFFF7F
:10019000FFFFFFFFFFFFFFFFFFFFFFFFFFFFFFFF6F
:1001A000FFFFFFFFFFFFFFFFFFFFFFFFFFFFFFFF5F
:1001B000FFFFFFFFFFFFFFFFFFFFFFFFFFFFFFFF4F
:1001C000FFFFFFFFFFFFFFFFFFFFFFFFFFFFFFFF3F
:1001D000FFFFFFFFFFFFFFFFFFFFFFFFFFFFFFFF2F
:1001E000FFFFFFFFFFFFFFFFFFFFFFFFFFFFFFFF1F
:1001F000FFFFFFFFFFFFFFFFFFFFFFFFFFFFFFFF0F
:10020000FFFFFFFFFFFFFFFFFFFFFFFFFFFFFFFFFE
:10021000FFFFFFFFFFFFFFFFFFFFFFFFFFFFFFFFEE
:10022000FFFFFFFFFFFFFFFFFFFFFFFFFFFFFFFFDE
:10023000FFFFFFFFFFFFFFFFFFFFFFFFFFFFFFFFCE
:10024000FFFFFFFFFFFFFFFFFFFFFFFFFFFFFFFFBE
:10025000FFFFFFFFFFFFFFFFFFFFFFFFFFFFFFFFAE
:10026000FFFFFFFFFFFFFFFFFFFFFFFFFFFFFFFF9E
:10027000FFFFFFFFFFFFFFFFFFFFFFFFFFFFFFFF8E
:10028000FFFFFFFFFFFFFFFFFFFFFFFFFFFFFFFF7E
:10029000FFFFFFFFFFFFFFFFFFFFFFFFFFFFFFFF6E
:1002A000FFFFFFFFFFFFFFFFFFFFFFFFFFFFFFFF5E
:1002B000FFFFFFFFFFFFFFFFFFFFFFFFFFFFFFFF4E
:1002C000FFFFFFFFFFFFFFFFFFFFFFFFFFFFFFFF3E
:1002D000FFFFFFFFFFFFFFFFFFFFFFFFFFFFFFFF2E
:1002E000FFFFFFFFFFFFFFFFFFFFFFFFFFFFFFFF1E
:1002F000FFFFFFFFFFFFFFFFFFFFFFFFFFFFFFFF0E
:10030000074B40201A1DD16F0143D1675968054A38
:100310000A405A6059688022D2000A435A607047E6
:1003200000800440FFFBFFFF064B8021DA6F0A4389
:10033000DA67054B054A0D211A60E0224942520056
:10034000995070470480044000C000400400FFFF43
:1003500038B500F0A9F9FFF7D3FFE120400200F023
:10036000E7F9124BFA211868890000F03FFA00F013
:1003700031F8A025FFF7D8FF80232D069B01EA580E
:1003800004210A43EA50882304249B01FA20EC50FC
:10039000400000F045F88A239B01FA20EC50400011
:1003A00000F03EF8024800F073F9ECE7000000109E
:1003B0006008000000B5054B0122D968114204D045
:1003C000DA60034B1A6801321A6000BD0040004039
:1003D0000400001010B50E4B8022191DCC6FD20006
:1003E0001443CC675C6880218C435C605C6821436B
:1003F0005960084B00211960074B8021186018686C
:1004000009060143196001219960044B1A6010BD6F
:1004100000800440040000100040004000E100E0C3
:1004200000B5034B00221A601A688242FCD300BD5B
:100430000400001008B500F0C9F908BD08B5031E96
:1004400005D01A6811701A6801321A6002E0081C9F
:10045000FFF7F0FF08BDF7B5141C002201900F1C38
:100460002026944201DC0CE00132B95C0029FBD16A
:10047000A24201DAA41A00E00C1C20269A0700D53B
:1004800030260025DA070CD4251C04E00198311C25
:10049000FFF7D4FF013D002DF8DCE543ED172540C3
:1004A000641B7F1B03E00198FFF7C8FF0135795DEE
:1004B0000029F8D1271C04E00198311CFFF7BEFF8A
:1004C000013F002FF8DCE043C01704402819FEBDAF
:1004D000F0B589B00290171C0E9E0C1E09D105AB19
:1004E00030221A705970321C191C0F9BFFF7B3FF92
:1004F0003FE000220192002B06D00A2F04D1944243
:1005000002DA01236442019305AB0022DA72109BE8
:100510006D463A3B1F3503930FE0201C391C00F059
:1005200065F9092901DD039BC9183031013D2970A6
:10053000201C391C00F05AF9041C002CEDD1019C40
:10054000002C0FD0002E09D00F9A920706D50298E2
:100550002D21FFF773FF013E012403E0013D2D2310
:100560002B7000240298291C321C0F9BFFF773FF8D
:10057000201809B0F0BD0000F0B589B0061C0D1CB4
:100580000592002477E0252B6FD16978002975D07A
:100590006A1C252968D000232D2901D1AA1C01231A
:1005A000151C02E00220013503432A78302AF9D0D5
:1005B00000220A279C4602E07A4301351218297866
:1005C000081C3038C3B2092BF6D96346732907D10A
:1005D0000599081D09680590002941D12B493FE084
:1005E00064290ED10599081D0968019361230590BE
:1005F00000920293301C0A220123FFF769FF24189E
:1006000038E0782907D10599081D059009680193FC
:100610000092612308E058290AD10599081D059028
:1006200009680193009241230293301C10220BE0D1
:1006300075290BD10599081D09680193612305905F
:1006400000920293301C0A220023D6E7632911D1BD
:100650000598011D0068059107A9087000204870E1
:10066000301CFFF7F8FECAE7151C2978301CFFF78D
:10067000E5FE013401352B78002B84D1002E02D009
:10068000336800221A70201C09B0F0BD7008000009
:100690000FB407B504AA02CA00200192FFF76CFF4D
:1006A00003B008BC04B0184770B51D4D00206B6A3C
:1006B000DB051B0F013B0E2B02D81A4A9B009858F2
:1006C000696A2A6F0326164B3240174C022A0CD057
:1006D000B24212D0012A03D11B6C1E40022E01D05F
:1006E000124B00E00023236012E01F231940490051
:1006F000023100F07BF820600AE0196C0A40022AFF
:10070000F0D09B681F200949184001304143216007
:10071000054CA96F206800F069F8206070BDC046E4
:10072000008004407808000000000010001BB700A3
:10073000F0B5224C224F231C85B094330122029045
:1007400008261A603A1DD667221DD06F8021C90184
:100750000143D16762681B4DB243626062683243F5
:1007600062601968184B186800F040F80423029979
:100770002B60D840019000F039F8231CF033013889
:10078000FF2228621A601868296A1B68029A03937C
:10079000019B013001315143584300F027F8039A7F
:1007A000F434D343C01882231B012060AB603E6049
:1007B0002B68012213432B6005B0F0BD008004407C
:1007C00000E100E0004006400000001000B5044ACF
:1007D000042391681942FCD0014BD86100BDC0468A
:1007E0000040064008B5FFF7B3FD08BD002931D031
:1007F0000122D207030901E0090112099942FBD93C
:10080000430801E0490052089942FBD900E0490839
:10081000401A07D35241FAD301461046704749089F
:100820004018F7D29218FAD3401801461046704784
:10083000CB0F00D04942021000D54042534008B5CA
:10084000FFF7D4FF0CBC521000D34042002A00D561
:1008500049421847F446002000F001F8604770470D
:1008600048656C6C6F2C204C5043383130210A00A5
:10087000286E756C6C29000020A1070000350C0063
:10088000E0C81000C05C1500006A180040771B002B
:1008900080841E00C0912100009F240040AC2700EE
:1008A000E032290020402C00604D2F0000D43000A1
:0408B00040E13300F0
:0408B40000366E019B
:0400000300000109EF
:00000001FF
